S013000050726F6772616D31305F312E7372656348
S1130000B0240020410200003D0200003D02000037
S113001000000000000000000000000000000000DC
S11300200000000000000000000000003D0200008D
S113003000000000000000003D0200005D0500001B
S11300403D0200003D0200003D0200003D020000B0
S11300503D0200003D0200003D0200003D020000A0
S11300603D0200003D0200003D0200003D02000090
S11300703D0200003D0200003D0200003D02000080
S11300803D0200003D0200003D0200003D02000070
S11300903D02000000000000000000003D020000DE
S11300A03D0200003D0200003D0200003D02000050
S11300B00000000010B5064C2378002B07D1054B37
S11300C0002B02D0044800E000BF0123237010BDC0
S11300D0340400200000000034070000084B10B571
S11300E0002B03D00749084800E000BF0748036815
S11300F0002B00D110BD064B002BFBD09847F9E72D
S11301000000000038040020340700003407000019
S11301100000000070B5184B184A5A60C0218900CD
S11301208422995044255A5D02210A435A55482491
S11301301A5D0A431A55C9201A5C0A431A545422F8
S11301409E5C314399545E5D04210E435E55343DFB
S11301509D611D5D0D431D55B8349C611C5C0C43B1
S11301601C548024A40031381C50985C01439954D9
S1130170802252039A6170BD0044004110011000B6
S113018000222A4B1A702A4A136A802149000B4024
S113019059424B41DBB227490B70A023D35880202E
S11301A08000034058424341DBB223480370126A83
S11301B0102313405A425341DBB243700B78002B97
S11301C02FD142780378DBB2002A04D1002B02D16C
S11301D00432164B1A70184A537801214B40DBB293
S11301E01278D2B2002B04D0002A02D003220F4B83
S11301F01A70114B5A781B7801214B40DBB2002A4C
S113020004D0002B02D00222084B1A700A4B5A78F1
S11302101B78DBB2002A04D0002B02D00122034B4E
S11302201A70024B1878C0B27047C04657040020B9
S1130230004400415504002050040020FEE7000063
S1130240F8B5234A234B9A4209D0224B204A03E0B3
S113025011681960043304321F498B42F8D31F4BD1
S113026002E000221A6004331D4A9342F9D31D4A66
S1130270FF211D4B8B439360FD3990235B001B4A88
S1130280D1501B4AD3780325AB4302242343D370B4
S1130290D3780C27BB4308263343D370154B987B84
S11302A030229043202210439873997BB943314301
S11302B099739A7BAA4322439A730F4A5168802305
S11302C00B4353600D4B98470D4B9847FEE7C046D0
S11302D0340700000000002034040020340400200F
S11302E0AC04002000ED00E00000000000700041BC
S11302F00050004100480041004000416D050000ED
S1130300AD04000055494A681E239A431C3B13431D
S11303104B60534A936908210B439361514B524AF2
S11303209A829A8A02210A439A824E4BDB689B077F
S1130330FBD501224D4B1A704C4B1B78DB0704D5BF
S11303404A4B5B785BB2002BF6DB0122474B9A6089
S1130350464B5B785BB2002BFADB454A434B5A6051
S1130360424B5B785BB2002BFADB8222D2013F4B1B
S11303705A803E4B5B785BB2002BFADB394A938C94
S113038080218B439384374BDB68DB06FBD5394AEA
S1130390344BDA62334BDB68DB06FBD5314A938C92
S11303A035490B4393842F4BDB68DB06FBD52D4A81
S11303B0938C02210B439BB293842A4BDB681B066C
S11303C0FBD5284BDB685B06F7D5264BDB68DB06E1
S11303D0FBD50022254B9A60244B5B785BB2002B43
S11303E0FADB264A214B5A60204B5B785BB2002B28
S11303F0FADB1C4B196A224A1140802252000A433C
S11304001A62196A802291431962184B03229A6076
S11304101C4A5A60154B5B785BB2002BFADB104B1D
S113042000221A725A729A72DA72174A174B1A60B9
S1130430174B1968CA0807231340164A1268D20ECC
S11304404901FF2001401B020A431343124A13854A
S1130450024A516880230B435360704700400041B7
S113046000040040000800400C060000000C00409E
S113047001050100B805FF7D040A00000007030020
S1130480FFFCFFFF03060100006CDC0200000020FB
S113049024608000206080000040004272B6024B5D
S11304A0186862B67047C0468404002010B5204B1B
S11304B09847204A204B53602048036A1B021B0ABA
S11304C0C02109060B4303620023936007331360C2
S11304D01B4B984704E0012B02D10122194B1A70DF
S11304E0194B9847194B18601B68194A12689B1AD4
S11304F0142B07D9154B1A68154B1A60154B9847DE
S1130500154B1870144B1B78DBB2022B08D0E2D9C0
S1130510032B09D0042BE3D104220A4B1A70DFE722
S11305200222084B1A70DBE70322064B1A70D7E746
S11305300503000010E000E07FBB000000ED00E0D8
S113054015010000520400209D04000080040020D6
S113055060040020810100005C040020024A13684A
S1130560013313607047C0468404002070B50D4EFB
S11305700D4D0024AD1BAD1005D0A300F35801347C
S11305809847A542F9D100F0C3F8084E084D00245D
S1130590AD1BAD1005D0A300F35801349847A54214
S11305A0F9D170BD1C0700001C0700001C070000E7
S11305B024070000034B10B5002B02D0024800F0C2
S11305C005F810BD00000000DD05000010B50100B5
S11305D000230022002000F01FF810BD70B5094B65
S11305E0094CE41AA41009D0084AA518AD00ED1866
S11305F02B68013C9847043D002CF9D100F092F897
S113060070BDC0463007000034070000FFFFFF3F05
S11306107047C0467047C046F0B54E464546DE4674
S11306205746E0B5364D83B00600286898460F005B
S11306309146FFF7EDFF334B1C68A4235B00E058A1
S1130640002852D043681F2B13DC5A1C0192002E41
S113065028D1019A02339B0042601F502868FFF79B
S1130660D9FF002003B03CBC90469946A246AB4655
S1130670F0BD254B002B3DD0C820400000E000BF5A
S1130680002837D0A42200235200A15843600160FF
S1130690A05040328350043283500133019300232D
S11306A0002ED6D09A00924682444A468821544667
S11306B06250C4225200914681444A468739994087
S11306C012688B460A4394464A4661461160842266
S11306D041465200A150022EBBD102005C468D322D
S11306E0FF3211680C431460B3E720004D30FF3033
S11306F0E050A7E72868FFF78DFF01204042B1E7EB
S1130700300400200C070000000000000800002056
S1130710F8B5C046F8BC08BC9E467047B505000055
S1130720DD000000F8B5C046F8BC08BC9E46704722
S1070730B50000000C
S113073440420F000000000000000000F40200200A
S11307445C030020C403002000000000000000003B
S11307540000000000000000000000000000000091
S11307640000000000000000000000000000000081
S11307740000000000000000000000000000000071
S11307840000000000000000000000000000000061
S11307940000000000000000000000000000000051
S11307A40000000000000000000000000000000041
S11307B40000000000000000000000000000000031
S11307C40000000000000000000000000000000021
S11307D40000000000000000000000000000000011
S11307E401000000000000000E33CDAB34126DE6AE
S11307F4ECDE05000B000000000000000000000017
S113080400000000000000000000000000000000E0
S113081400000000000000000000000000000000D0
S113082400000000000000000000000000000000C0
S113083400000000000000000000000000000000B0
S1070B6488040020DD
S9030000FC
