S013000050726F6772616D31305F312E7372656348
S1130000B0240020410200003D0200003D02000037
S113001000000000000000000000000000000000DC
S11300200000000000000000000000003D0200008D
S113003000000000000000003D0200003106000046
S11300403D0200003D0200003D0200003D020000B0
S11300503D0200003D0200003D0200003D020000A0
S11300603D0200003D0200003D0200003D02000090
S11300703D0200003D0200003D0200003D02000080
S11300803D0200003D0200003D0200003D02000070
S11300903D02000000000000000000003D020000DE
S11300A03D0200003D0200003D0200003D02000050
S11300B00000000010B5064C2378002B07D1054B37
S11300C0002B02D0044800E000BF0123237010BDC0
S11300D0340400200000000070170000084B10B525
S11300E0002B03D00749084800E000BF0748036815
S11300F0002B00D110BD064B002BFBD09847F9E72D
S11301000000000038040020701700007017000081
S11301100000000070B5184B184A5A60C0218900CD
S11301208422995044255A5D02210A435A55482491
S11301301A5D0A431A55C9201A5C0A431A545422F8
S11301409E5C314399545E5D04210E435E55343DFB
S11301509D611D5D0D431D55B8349C611C5C0C43B1
S11301601C548024A40031381C50985C01439954D9
S1130170802252039A6170BD0044004110011000B6
S113018000222A4B1A702A4A136A802149000B4024
S113019059424B41DBB227490B70A023D35880202E
S11301A08000034058424341DBB223480370126A83
S11301B0102313405A425341DBB243700B78002B97
S11301C02FD142780378DBB2002A04D1002B02D16C
S11301D00432164B1A70184A537801214B40DBB293
S11301E01278D2B2002B04D0002A02D003220F4B83
S11301F01A70114B5A781B7801214B40DBB2002A4C
S113020004D0002B02D00222084B1A700A4B5A78F1
S11302101B78DBB2002A04D0002B02D00122034B4E
S11302201A70024B1878C0B27047C0465B040020B5
S1130230004400415904002050040020FEE700005F
S1130240F8B5234A234B9A4209D0224B204A03E0B3
S113025011681960043304321F498B42F8D31F4BD1
S113026002E000221A6004331D4A9342F9D31D4A66
S1130270FF211D4B8B439360FD3990235B001B4A88
S1130280D1501B4AD3780325AB4302242343D370B4
S1130290D3780C27BB4308263343D370154B987B84
S11302A030229043202210439873997BB943314301
S11302B099739A7BAA4322439A730F4A5168802305
S11302C00B4353600D4B98470D4B9847FEE7C046D0
S11302D070170000000000203404002034040020C3
S11302E0B004002000ED00E00000000000700041B8
S11302F0005000410048004100400041F11400005A
S1130300D504000055494A681E239A431C3B1343F5
S11303104B60534A936908210B439361514B524AF2
S11303209A829A8A02210A439A824E4BDB689B077F
S1130330FBD501224D4B1A704C4B1B78DB0704D5BF
S11303404A4B5B785BB2002BF6DB0122474B9A6089
S1130350464B5B785BB2002BFADB454A434B5A6051
S1130360424B5B785BB2002BFADB8222D2013F4B1B
S11303705A803E4B5B785BB2002BFADB394A938C94
S113038080218B439384374BDB68DB06FBD5394AEA
S1130390344BDA62334BDB68DB06FBD5314A938C92
S11303A035490B4393842F4BDB68DB06FBD52D4A81
S11303B0938C02210B439BB293842A4BDB681B066C
S11303C0FBD5284BDB685B06F7D5264BDB68DB06E1
S11303D0FBD50022254B9A60244B5B785BB2002B43
S11303E0FADB264A214B5A60204B5B785BB2002B28
S11303F0FADB1C4B196A224A1140802252000A433C
S11304001A62196A802291431962184B03229A6076
S11304101C4A5A60154B5B785BB2002BFADB104B1D
S113042000221A725A729A72DA72174A174B1A60B9
S1130430174B1968CA0807231340164A1268D20ECC
S11304404901FF2001401B020A431343124A13854A
S1130450024A516880230B435360704700400041B7
S113046000040040000800400C060000000C00409E
S113047001050100B805FF7D040A00000007030020
S1130480FFFCFFFF03060100006CDC0200000020FB
S1130490246080002060800000400042044B054A34
S11304A01A60054A5A60054A9A60054ADA6070473C
S11304B07404002042909B4327F177430AA7CF435B
S11304C0E9A64F4372B6024B186862B67047C0463D
S11304D08804002010B5404B9847404A404B536075
S11304E04048036A1B021B0AC02109060B4303622E
S11304F000239360073313603B4B98473B4B98476B
S11305003B4B98473B4B984735E03B4B1A683B4B7A
S11305101A603B4B98473B4B187038E03A4B98476E
S11305203A4B1B78DBB2042B1ED89B00384AD358B5
S11305309F46364C01232370364B1868364B984738
S1130540C0B26070ECE70222304B1A70E8E7032275
S11305502E4B1A70E4E704222C4B1A70E0E72A4B66
S113056098470022294B5A70284B5878C0B22B4B1D
S113057098472B4B98472B4B98472B4B98471E4B30
S113058018601B681D4A12689B1A142BBDD81D4B9A
S11305901B78DBB2042BC3D89B00244AD3589F4654
S11305A0FF221A4B5A70DFE71A4B58681A4B9847C8
S11305B0C0B2164B5870D7E7164B9868164B98473D
S11305C0C0B2124B5870CFE7124BD868124B984701
S11305D0C0B20E4B5870C7E70503000010E000E0FE
S11305E07FBB000000ED00E01501000041060000A3
S11305F0590800009D0400008404002064040020C5
S11306008101000060040020DD0700005204002086
S1130610901600007404002009090000651200000F
S11306200D080000AD070000C5040000A41600007A
S1130630024A1368013313607047C04688040020DF
S113064030B5534A116AC0239B000B431362514ACD
S1130650514B5A80504B5B785BB2002BFADB012282
S11306604E4B1A604D4B9B68DB07FBD401224C4B6D
S11306701A604B4B9B68DB07FBD4484A1379022171
S11306800B431371454B9B685B07FBD4444A1379B6
S113069002210B431371424B9B685B07FBD43F4918
S11306A04A690324A243012313434B613C4B586919
S11306B00200A2435A610223CB63384B9B685B065A
S11306C0FBD40222364BDA63354B9B685B06FBD4C2
S11306D0344A324B1A64314B9B681B06FBD42F4AB5
S11306E0136C5B0813672D4B9B681B03FBD42B4ACD
S11306F0136C5B085367294B9B681B03FBD4274A85
S1130700136C5B089367254B9B681B03FBD4234A3C
S1130710136C5B08D367214B9B681B03FBD4214AF2
S11307201F4B1A641D4B9B681B06FBD41C4A136C9D
S11307305B0813671A4B9B681B03FBD4174A1368A7
S113074002210B431360154B9B689B07FBD4144A8F
S1130750136802210B431360114B9B689B07FBD466
S1130760114B49215A5C012422435A543420195C08
S11307700F2211404025294319541B30195C214391
S113078019543721585C0240502002435A5430BD5A
S1130790000400401A400000000C00400020004209
S11307A000240042FFFF000000440041094A116890
S11307B002230B431360074B9B689B07FBD4064A39
S11307C0116802230B431360034B9B689B07FBD404
S11307D07047C0460020004200240042094B1968BB
S11307E0022291431960074B9B689B07FBD4064B7D
S11307F01968022291431960034B9B689B07FBD441
S11308007047C046002000420024004270B5041C1A
S11308100B4E011C0B48B0470B4DA8470B4BD86639
S1130820211C201C0A4B9847011C0648B047A847C6
S1130830084B5867074B9B681B06FBD470BDC0462A
S11308405D0C0000001B374C090900000020004229
S11308503909000000240042244BDA6908210A43C4
S1130860DA61196A802252000A431A62204A214B33
S11308705A80204B5B78DB09FBD11F4A4921535C2A
S11308800120034353541539505C0F230340402087
S113089003435354194A116801230B431360174B44
S11308A09B68DB07FBD41549CA6B07239A43053BB6
S11308B01343CB63114B9B685B06FBD4104A0F4B6D
S11308C01A640E4B9B681B06FBD40E4A0B4B9A64AE
S11308D00A4B9B689B05FBD4084A116802230B430F
S11308E01360064B9B689B07FBD4704700040040D1
S11308F01A400000000C0040004400410020004267
S11309007FBB0000C05D00009E2110B5C905041C1A
S113091000F01EFD002803D1201C00F083FC10BD54
S11309209E21201CC90500F0E1FA00F07BFC802325
S11309301B069C466044F2E7F0B5C6464E024702E9
S1130940760A7B0A4400C50FF7004800984600B5B4
S1130950240E2A00DB00000EC90FBC468D4267D06E
S1130960221A002A00DCA5E000283AD1002F00D189
S113097093E0511E002900D0BCE00124DB1B5A0186
S113098046D59B019E09300000F0ECFC05388640FA
S1130990844200DD9DE0041B320020200134E2404B
S11309A0041BA64033005E1EB341002413435A07C0
S11309B004D00F221A40042A00D004335A0129D546
S11309C00134FF2C00D181E02A009B015B0AE4B2D0
S11309D05B02E405580AD2072043104304BC904646
S11309E0F0BDFF2CE3D080213800C90408438446BD
S11309F01B2A00DD82E020206146D140821A604635
S1130A0090400200501E82410A439B1A5A01B8D4F6
S1130A105A07CED1DE082A00FF2C3AD1002E00D18D
S1130A20AEE08023DB0333435B025B0AFF24CFE7A2
S1130A30211A002952DD002831D0FF2CB7D08020A4
S1130A403E00C0040643B4461B2900DDAAE020266C
S1130A506046C840711A66468E4031004E1EB14150
S1130A6001435B185901D3D50134FF2C00D187E031
S1130A70012278491A405B080B40134397E7002C86
S1130A8000D0A7E0002B00D0B6E03B1E62D10026C8
S1130A90002273025B0AE4B29AE7140087E7002F8E
S1130AA04DD0481E002857D1634401245A01AFD5C4
S1130AB00224DDE7002A24D1621CD2B2012ADEDD41
S1130AC0DE1B720135D5FE1A0D005CE72A000023F7
S1130AD07EE73300604A241A134068E7002963D193
S1130AE0611CC8B201284EDDFF2949D063445B086C
S1130AF00C005CE7FF2A41D00A0079E701229B1A27
S1130B0084E7002C1DD0FF2822D08024E404524224
S1130B1023431B2A00DD8AE01C002025D440AA1AA6
S1130B2093405A1E9341234362460400D31A0D0096
S1130B3025E7002E00D026E700220024A9E70C00B8
S1130B4035E7002B4DD0D243002AEDD0FF28E0D169
S1130B506346FF240D002AE7FF290FD0010073E745
S1130B60002B61D0FF24002F00D120E780224146D2
S1130B70D203114202D0164200D13B00FF2416E7F3
S1130B80FF24002324E7002CEAD1002B58D0002FA7
S1130B9000D10CE763445A0100D439E72E4A0C0013
S1130BA0134004E701215CE7002C1ED1002B40D048
S1130BB0C94300290BD0FF2836D01B2947DC1C0071
S1130BC02026CC40711A8B40591E8B412343634429
S1130BD0040047E7002B18D13B1E2DD00D00FF2445
S1130BE0E5E63B0004000D00E1E6FF281CD080246C
S1130BF0E40449422343E0E7002F00D1D7E6DE1B9B
S1130C0072011FD5FB1A0D00D1E6FF24002F00D17D
S1130C10CDE680224046D2031042AFD01642ADD179
S1130C203B000D00FF24C2E66346FF24BFE6012318
S1130C307AE73B000400BAE680260022F603F0E6D9
S1130C403B00B4E6331E00D0E2E6002221E7012394
S1130C50BDE7C046FFFFFF7DFFFFFFFBF0B5574632
S1130C604E46DE464546E0B544024300C60F83B017
S1130C700F1C640A1B0EB24653D0FF2B27D08022D0
S1130C80E400D20414437F22524290469844002345
S1130C9099469B467D027800FB0F6D0A000E009377
S1130CA024D0FF2846D080230021ED00DB041D431F
S1130CB07F384746381A4F460F43BF00B9463300C2
S1130CC0009A874F53404A46BA5801939746002CDE
S1130CD04ED108239946F7339846FD3B9B467D0247
S1130CE07800FB0F6D0A000E0093DAD1002D26D197
S1130CF0002001213300009A7A4F53404246101AD3
S1130D004A460A439200BA581D009746009B2C009D
S1130D109A468B465B46022B31D15346FF21002471
S1130D2038E0002C17D10423994600239846013358
S1130D309B46AFE7FF20002D0BD10221DAE7280004
S1130D4000F010FB431F9D4076235B42181A0021DC
S1130D50AFE70321ADE7200000F004FB431F9C40F4
S1130D6076235B421B1A9846002399469B4691E7DB
S1130D700C239946F3339846FC3B9B468AE7032BA6
S1130D8000D1A5E05546012B00D081E001230021CC
S1130D9000242B406402C905600ADB07084318439A
S1130DA003B03CBC90469946A246AB46F0BD8024B5
S1130DB00023E403FF21EDE7FF210024EAE70123F8
S1130DC0591A1B2966DD019A134000210024E1E72A
S1130DD08023DB031C4238D01D4251D01C436402E3
S1130DE0640A3300FF21D5E763016C01A3423BD2BF
S1130DF01B260021013801251F0049005B00002F3C
S1130E0001DB9C4201D81B1B2943013E002EF3D178
S1130E101C00631E9C410C4301007F310029CEDD80
S1130E20630704D00F232340042B00D00434230190
S1130E3003D501002C4B80311C40FE290DDD01231C
S1130E40019AFF2113400024A4E78023DB031C4301
S1130E506402640A3300FF219CE70123019AA40180
S1130E60640AC9B2134095E71B1B1A260121C2E785
S1130E70009B8B469A4600244CE76302E5D5002587
S1130E808024E4032C436402640A009BFF2181E76D
S1130E900195C1E723002020CB40411A8C40611EFC
S1130EA08C411C43630704D00F232340042B00D040
S1130EB00434630105D50123019A01211340002460
S1130EC068E70123019AA401640A1340002161E741
S1130ED08023DB031C436402640A5346FF2159E761
S1130EE0C816000008170000FFFFFFF7F0B54F46D3
S1130EF0D64646464400C0B5C20F47024802400ADF
S1130F00844666467B0A4800C90F9A46240E15009B
S1130F10DB00000E8946F600FF2800D18FE0012196
S1130F204F464F403900914266D0221A002A00DC15
S1130F309DE000283DD1002E00D18BE0511E0029F8
S1130F4000D0B5E001249B1B5A0144D59B019F09A5
S1130F50380000F007FA05388740844200DD96E047
S1130F60041B3A0020200134E240041BA7403B004C
S1130F705F1EBB41002413435A0704D00F221A40BA
S1130F80042A00D004335A0127D50134FF2C00D1A0
S1130F9079E001229B015B0AE4B22A405B02E4058A
S1130FA0580AD207204310431CBC90469946A246D7
S1130FB0F0BDFF2CE0D08021C9040E431B2A7BDC4A
S1130FC031002020D140821A9640721E96410E4371
S1130FD09B1B5A01BAD45A07D0D10122DF082A40F8
S1130FE0FF2C33D1002F00D1A8E08023DB033B4347
S1130FF05B025B0AFF24D1E7211A00294CDD00289B
S11310002AD0FF2CB8D08020C00406431B2900DD61
S1131010AFE030002027C840791A8E40711E8E41FF
S113102006439B195901D6D50134FF2C00D185E024
S113103001227A491A405B080B4013439CE7002EB7
S113104000D070E76BE73B1EC5D100227B025B0A30
S1131050E4B2A3E714008FE7002E4DD0481E002809
S113106057D19B1901245A01B5D50224E0E7002A7F
S113107025D1621CD2B2012A72DD9F1B7A0135D5BB
S1131080F71A0D0064E7012200232A4086E73B009B
S1131090634A241A13406FE700296CD1611CC8B25B
S11310A001284EDDFF2949D09B195B080C0063E73A
S11310B0FF2A41D00A0081E701269B1B89E7002C07
S11310C01CD0FF2821D08024E404524223431B2A4D
S11310D000DD96E01C002025D440AA1A93405A1E35
S11310E093412343F31A04000D002DE7002F00D091
S11310F02EE700220024A9E70C003DE7002B58D07E
S1131100D243002AEED0FF28E1D13300FF240D00A2
S113111032E7FF2910D0010078E7002B6ED0FF24BE
S1131120002E00D128E780225146D203114203D079
S11311306146114200D13300FF241DE7FF24002340
S11311402CE7002CE9D1002B63D0002E00D113E74B
S11311509B195A0100D43EE7314A0C0013400BE7B7
S1131160002C1ED1002B2FD1002E4FD033000D00A8
S113117002E7012655E7002C1FD1002B43D0C943B9
S113118000290BD0FF2839D01B2944DC1C00202760
S1131190CC40791A8B40591E8B4123439B19040080
S11311A040E7002B1AD1002E24D180270022FF0310
S11311B01BE7330004000D00DEE6FF281ED0802468
S11311C0E40449422343DFE7002E00D1D4E69F1B09
S11311D07A0100D437E7F31A0D00CDE6FF24002E80
S11311E000D1C9E680225046D2031042A4D0604602
S11311F01042A1D133000D00FF24BDE63300FF24CB
S1131200BAE601236EE733000400B5E600270022A6
S11312101CE73300B0E60123C0E7C046FFFFFF7DB3
S1131220FFFFFFFB41024300C20F490A1B0E0020CF
S11312307E2B0DDD9D2B0CDC802000040143952BBF
S11312400ADC9620C31AD9404842002A00D108007B
S11312507047034BD018FBE7963B9940F4E7C04630
S1131260FFFFFF7F10B5041E27D000F07BF89E23FC
S11312701B1A962B0ADC9622D21A94406402640A42
S1131280DBB26402DB05600A184310BD992B17DC3E
S11312909922D21A002A27DD94402200134C1440CC
S11312A0510704D00F210A40042A00D004346201FB
S11312B012D4A401640ADBB2E3E700230024E0E7CC
S11312C0B9222100D21A91400A00511E8A410521F7
S11312D0091ACC401443DBE7044B1C409F23A401B0
S11312E01B1A640ADBB2CCE72200D7E7FFFFFFFB3F
S11312F08446081C6146FFE71FB500F0B7F80028D4
S113130001D40021C8421FBD10B500F049F8404285
S1131310013010BD10B500F0A9F8002801DB002051
S113132010BD012010BDC04610B500F09FF8002884
S113133001DD002010BD012010BDC04610B500F035
S113134055F8002801DC002010BD012010BDC04666
S113135010B500F04BF8002801DA002010BD012080
S113136010BDC0461C2101231B04984201D3000C6C
S113137010391B0A984201D3000A08391B09984204
S113138001D30009043902A2105C40187047C0461A
S1131390040302020101010100000000000000003A
S11313A070B5420045024E024C00C30F6D0A120E86
S11313B0760A240EC90F0120FF2A06D0FF2C03D081
S11313C0A24201D1B54206D070BD002DFCD1FF2C44
S11313D0FAD1002EF8D18B4206D00120002AF3D195
S11313E02800451EA841EFE70020EDE7F0B54200D4
S11313F045024C02C30F48006D0A120E640A000E27
S1131400C90FFF2A1ED0FF2821D0002A0AD16E421C
S11314106E41F6B200280FD1002C0DD10020002D12
S113142009D005E0002801D1002C01D08B4211D055
S1131430012158420843F0BD002EF7D001200139A4
S11314400843F8E7002DDED002204042F3E7002CE9
S1131450DBD0F9E78242EBDC04DBA542E8D80020CC
S1131460A542E8D20121581E0843E4E7F0B5420042
S11314704D024C004602760A120EC30F6D0A240E6A
S1131480C90FFF2A16D0FF2C18D0002A0AD17042A7
S11314907041C0B2002C15D0002805D001200139BC
S11314A00843F0BD002C13D0994214D001205B42B4
S11314B01843F6E70220002EF3D1E4E70220002DC2
S11314C0EFD1E2E7002DE7D10020002EE9D0EDE7CF
S11314D0002DE9D1EAE7A24206DCDFDBAE4203D805
S11314E00020AE42DAD3DCE7012049420843D8E7C2
S11314F070B50D4E0D4D0024AD1BAD1005D0A300ED
S1131500F35801349847A542F9D100F01FF9084E69
S1131510084D0024AD1BAD1005D0A300F3580134D1
S11315209847A542F9D170BD58170000581700001C
S11315305817000060170000034B10B5002B02D0B1
S1131540024800F005F810BD00000000611500001D
S113155010B5010000230022002000F01FF810BD88
S113156070B5094B094CE41AA41009D0084AA5180F
S1131570AD00ED182B68013C9847043D002CF9D1CF
S113158000F0EEF870BDC0466C1700007017000044
S1131590FFFFFF3F7047C0467047C046F0B54E4658
S11315A04546DE465746E0B5364D83B0060028680A
S11315B098460F009146FFF7EDFF334B1C68A423B8
S11315C05B00E058002852D043681F2B13DC5A1CE0
S11315D00192002E28D1019A02339B0042601F50D1
S11315E02868FFF7D9FF002003B03CBC9046994619
S11315F0A246AB46F0BD254B002B3DD0C820400091
S113160000E000BF002837D0A42200235200A158D4
S113161043600160A0504032835004328350013350
S113162001930023002ED6D09A00924682444A4663
S1131630882154466250C4225200914681444A464D
S11316408739994012688B460A4394464A46614654
S11316501160842241465200A150022EBBD10200E7
S11316605C468D32FF3211680C431460B3E72000EE
S11316704D30FF30E050A7E72868FFF78DFF0120C9
S11316804042B1E730040020481700000000000089
S11316905E050000A0050000A8050000B8050000D4
S11316A0C80500001C0500003205000046050000C6
S11316B04E05000056050000E9A64F4327F1774385
S11316C042909B430AA7CF43E80D0000B80D0000E9
S11316D0CA0D00000C0D0000CA0D0000AE0D000084
S11316E0CA0D00000C0D0000B80D0000B80D00007C
S11316F0AE0D00000C0D0000140D0000140D0000D0
S1131700140D0000D00D0000B80D0000B80D00004D
S11317108C0D0000700E00008C0D0000AE0D00005A
S11317208C0D0000700E0000B80D0000B80D000014
S1131730AE0D0000700E0000140D0000140D00002A
S1131740140D00007A0E000008000020F8B5C04611
S1131750F8BC08BC9E46704739150000DD00000047
S1131760F8B5C046F8BC08BC9E467047B5000000FA
S113177040420F000000000000000000F4020020BE
S11317805C030020C40300200000000000000000EF
S11317900000000000000000000000000000000045
S11317A00000000000000000000000000000000035
S11317B00000000000000000000000000000000025
S11317C00000000000000000000000000000000015
S11317D00000000000000000000000000000000005
S11317E000000000000000000000000000000000F5
S11317F000000000000000000000000000000000E5
S113180000000000000000000000000000000000D4
S113181000000000000000000000000000000000C4
S113182001000000000000000E33CDAB34126DE661
S1131830ECDE05000B0000000000000000000000CA
S11318400000000000000000000000000000000094
S11318500000000000000000000000000000000084
S11318600000000000000000000000000000000074
S11318700000000000000000000000000000000064
S1071BA08C0400208D
S9030000FC
