S013000050726F6772616D31305F312E7372656348
S1130000F02400205D0300005903000059030000A0
S113001000000000000000000000000000000000DC
S11300200000000000000000000000005903000070
S113003000000000000000005903000091090000C6
S1130040590300005903000059030000590300003C
S1130050590300005903000059030000590300002C
S1130060590300005903000059030000590300001C
S113007059030000E10C000059030000590300007B
S1130080590300005903000029030000590300002C
S113009059030000000000000000000059030000A4
S11300A059030000590300005903000059030000DC
S11300B00000000010B5064C2378002B07D1054B37
S11300C0002B02D0044800E000BF0123237010BDC0
S11300D03404002000000000B01C0000084B10B5E0
S11300E0002B03D00749084800E000BF0748036815
S11300F0002B00D110BD064B002BFBD09847F9E72D
S11301000000000038040020B01C0000B01C0000F7
S11301100000000070B5184B184A5A60C0218900CD
S11301208422995044255A5D02210A435A55482491
S11301301A5D0A431A55C9201A5C0A431A545422F8
S11301409E5C314399545E5D04210E435E55343DFB
S11301509D611D5D0D431D55B8349C611C5C0C43B1
S11301601C548024A40031381C50985C01439954D9
S1130170802252039A6170BD0044004110011000B6
S113018000222A4B1A702A4A136A802149000B4024
S113019059424B41DBB227490B70A023D35880202E
S11301A08000034058424341DBB223480370126A83
S11301B0102313405A425341DBB243700B78002B97
S11301C02FD142780378DBB2002A04D1002B02D16C
S11301D00432164B1A70184A537801214B40DBB293
S11301E01278D2B2002B04D0002A02D003220F4B83
S11301F01A70114B5A781B7801214B40DBB2002A4C
S113020004D0002B02D00222084B1A700A4B5A78F1
S11302101B78DBB2002A04D0002B02D00122034B4E
S11302201A70024B1878C0B27047C0469704002079
S113023000440041950400205004002080B2034B88
S11302401880034BDB7BDB09FBD17047182C004281
S1130250002C0042044A138802210B431380024BF2
S1130260DB7BDB09FBD17047002C0042044A138876
S113027002218B431380024BDB7BDB09FBD17047EC
S1130280002C004210B51A4A116A80231B010B434B
S11302901362184B80229A608022D2019A60164A17
S11302A0164B5A80154B5B785BB2002BFADB144B70
S11302B09847144B01225A738021C902124A1160D3
S11302C01A880C218A431A801A8854318A432021BF
S11302D00A431A805A8907208243022002435A8122
S11302E05A890A435A8180208001084B984710BDDF
S11302F000040040004400411B400000000C00408A
S11303006D020000002C004200E100E03D0200000C
S1130310014B1878C0B27047520400200022014BF0
S11303201A70704752040020084B9B7BDB070CD5E6
S11303300122064B9A73064B802199618020C001EB
S1130340986158615961034B1A707047002C004240
S11303500044004152040020FEE70000F8B5234A9F
S1130360234B9A4209D0224B204A03E011681960BA
S1130370043304321F498B42F8D31F4B02E000229E
S11303801A6004331D4A9342F9D31D4AFF211D4BC1
S11303908B439360FD3990235B001B4AD1501B4A69
S11303A0D3780325AB4302242343D370D3780C279B
S11303B0BB4308263343D370154B987B30229043BC
S11303C0202210439873997BB943314399739A7BE4
S11303D0AA4322439A730F4A516880230B43536004
S11303E00D4B98470D4B9847FEE7C046B01C0000E4
S11303F0000000203404002034040020F004002015
S113040000ED00E0000000000070004100500041D9
S11304100048004100400041051A0000190800008E
S113042055494A681E239A431C3B13434B60534A65
S1130430936908210B439361514B524A9A829A8AD9
S113044002210A439A824E4BDB689B07FBD50122AB
S11304504D4B1A704C4B1B78DB0704D54A4B5B7829
S11304605BB2002BF6DB0122474B9A60464B5B786C
S11304705BB2002BFADB454A434B5A60424B5B7834
S11304805BB2002BFADB8222D2013F4B5A803E4BF7
S11304905B785BB2002BFADB394A938C80218B4367
S11304A09384374BDB68DB06FBD5394A344BDA627D
S11304B0334BDB68DB06FBD5314A938C35490B4360
S11304C093842F4BDB68DB06FBD52D4A938C0221EA
S11304D00B439BB293842A4BDB681B06FBD5284B4A
S11304E0DB685B06F7D5264BDB68DB06FBD5002211
S11304F0254B9A60244B5B785BB2002BFADB264ACF
S1130500214B5A60204B5B785BB2002BFADB1C4B0F
S1130510196A224A1140802252000A431A62196A57
S1130520802291431962184B03229A601C4A5A6034
S1130530154B5B785BB2002BFADB104B00221A726E
S11305405A729A72DA72174A174B1A60174B196863
S1130550CA0807231340164A1268D20E4901FF2025
S113056001401B020A431343124A1385024A51688D
S113057080230B4353607047004000410004004057
S1130580000800400C060000000C004001050100BA
S1130590B805FF7D040A000000070300FFFCFFFF0D
S11305A003060100006CDC020000002024608000CF
S11305B020608000004000420B4A116A02230B4372
S11305C013620A4A0A4B5A80094B5B785BB2002BD0
S11305D0FADB084B1A7801210A431A708922520067
S11305E01A81054A5A607047000400400740000021
S11305F0000C00400004004200002506F0B5C64689
S113060000B58C4690460025002619E06B001B5A65
S11306101B051B0D6A1C5200145A2405240D721C60
S113062092B219096746B955B71CBFB21B01210A1A
S1130630CB1861468B540336B6B2CC550235ADB2F5
S11306404545E3D304BC9046F0BD000010B5052831
S113065007D88000104C205887461048C1838283F5
S113066043830E480100203110220D4B984710BDE2
S11306700A480183C2828382F3E7084841820282E6
S1130680C381EEE70548818142810381E9E703489C
S1130690C18082804380E4E7A41B0000540400204E
S11306A0FD050000014820307047C0465404002076
S11306B0044B054A1A60054A5A60054A9A60054A7D
S11306C0DA607047B404002042909B4327F17743DB
S11306D00AA7CF43E9A64F4310B5404B9847404B78
S11306E018701B78002B00D110BD3E4B9847FA239D
S11306F05B003D4A13803D4A13803D4A13803D4BC5
S11307001B78DBB2042B18D89B003B4AD3589F4676
S11307100023642200210120384CA047002300223A
S113072064210220A0470023C822C8210320A04737
S11307306423002200210420A047314B9847D3E7CB
S11307402A4A304B1380284900200880284B1880FF
S1130750098889B2128892B21B889BB20130274C57
S1130760A047EAE72049274B0B80204A002010804D
S11307701F4B1880098889B2128892B21B889BB2D9
S113078002301E4CA047D8E717491E4B0B80174A6E
S11307901380174B00201880098889B2128892B2FE
S11307A01B889BB20330154CA047F7220C4B5A70A0
S11307B0C3E70D4900230B800C4A13800C4B1148EE
S11307C01880098889B2128892B21B889BB20420CF
S11307D00A4CA047CF22024B5A70AEE71103000027
S11307E08C0400201D030000A6040020A4040020A3
S11307F09C0400209E040020BC1B00004D06000049
S1130800AD0C0000DC05000072B6024B186862B63D
S11308107047C046C804002010B5404B9847404A72
S1130820404B53604048036A1B021B0AC02109065F
S11308300B43036200239360073313603B4B9847D9
S11308403B4B98473B4B98473B4B98473B4B984710
S11308503B4B98473B4B98473B4B98473B4B984700
S11308603B4B98472FE03B4B1A683B4B1A603B4B82
S113087098473B4B187034E03A4B98473A4B9B7877
S1130880DBB2042B18D89B00384AD3589F46012268
S1130890354B9A70F2E70222334B9A70EEE703224B
S11308A0314B9A70EAE704222F4B9A70E6E72D4BFE
S11308B0984700222C4B5A702B4B5878C0B22C4BC3
S11308C098472C4B98472C4B98472C4B9847214CD6
S11308D020602B4B984723681F4A12689B1A142BDD
S11308E0C1D81F4B1B78DBB2042BC7D89B00254A09
S11308F0D3589F46244BD868244B9847C0B21A4B10
S11309005870D9E7FF22184B5A70D5E7F722164BD7
S11309105A70D1E7CF22144B5A70CDE7210400005E
S113092010E000E07FBB000000ED00E015010000D6
S1130930A1090000E10A0000B1060000A50D0000B5
S113094085020000910B0000B9050000850D000030
S113095055020000C4040020A0040020810100000E
S11309609E040020850A00008C040020D01B000097
S1130970791700009D0A00006D0A000009080000B4
S1130980D9060000E41B0000B40400201D0E000082
S1130990024A1368013313607047C046C80400203C
S11309A030B52C4A116AC0239B000B4313622A4AB8
S11309B02A4B5A80294B5B785BB2002BFADB01226D
S11309C0274B1A60264B9B68DB07FBD4244A137918
S11309D002210B431371224B9B685B07FBD4204B12
S11309E059690322914359610222DA631C4B9B68C3
S11309F05B06FBD41B4A1A4B1A64194B9B681B06F3
S1130A00FBD4174A136C5B081367154B9B681B03D5
S1130A10FBD4134A136802210B431360104B9B68E9
S1130A209B07FBD4104B49215A5C012422435A549E
S1130A303420195C0F2211404025294319541B30DE
S1130A40195C214319543721585C02405020024359
S1130A505A5430BD000400401A400000000C00400D
S1130A6000240042FFFF000000440041044A1168D2
S1130A7002230B431360024B9B689B07FBD4704714
S1130A8000240042044B1968022291431960024B6E
S1130A909B689B07FBD4704700240042F8B5041CF4
S1130AA00A4F011C0A48B8470A4EB0470A4DE86687
S1130AB0211C201C094B9847011C0548B847B04726
S1130AC02867054B9B681B06FBD4F8BD7111000019
S1130AD0001B374C1D0E0000002400424D0E000088
S1130AE0244BDA6908210A43DA61196A8022520028
S1130AF00A431A62204A214B5A80204B5B78DB0957
S1130B00FBD11F4A4921535C012003435354153937
S1130B10505C0F230340402003435354194A116887
S1130B2001230B431360174B9B68DB07FBD4154968
S1130B30CA6B07239A43053B1343CB63114B9B6852
S1130B405B06FBD4104A0F4B1A640E4B9B681B06C2
S1130B50FBD40E4A0B4B9A640A4B9B689B05FBD44F
S1130B60084A116802230B431360064B9B689B07DA
S1130B70FBD47047000400401A400000000C004001
S1130B8000440041002000427FBB0000C05D000023
S1130B9070B53B4BB520195C0F26B143032529439F
S1130BA01954CA229C5C01210C439C5436241A5DBE
S1130BB0B2432A431A5516341A5D0A431A551C5C6B
S1130BC00F222240302422431A5416301A5C0A435E
S1130BD01A542C4B1968022291431960294BDB6982
S1130BE09B07FBD4284A136A40210B431362274A0C
S1130BF0274B5A80264B5B785BB2002BFADB214AE9
S1130C00116801230B4313601E4B1B68DB07FBD4E5
S1130C101C4BDB69DB07F7D41A4B19681D4A0A40E1
S1130C201A6019681C4A1140802252020A431A6051
S1130C3019681A4A0A401A601968194A0A401A605F
S1130C401968184A0A401A6019681C229143103A1C
S1130C500A431A605968802292020A435A600B229E
S1130C601A731968093A0A431A6003229A75802292
S1130C7092010D4B1A60034BDB699B07FBD470BDDB
S1130C8000440041001800420004004018400000E5
S1130C90000C0040FFFFCFFFFFFFFCFFFFFFFFBF83
S1130CA0FFFFFFDFFFFFFFEF00E100E010B5084C9E
S1130CB000232370074A1370074B984723785A1C64
S1130CC02270C25C054B9A6201229A7510BDC0461F
S1130CD00400002090040020A50600000018004233
S1130CE010B5134B1B7EDB070AD5124B1B78172B51
S1130CF011D90F4B01221A750E490A7001329A75E7
S1130D000B4B1B7E9B0705D50222094B1A75013A32
S1130D10094B1A7010BD094B9847064A1378591CA1
S1130D201170C25C024B9A620022034B1A70E7E70F
S1130D30001800420400002090040020A5060000D2
S1130D400F4BD86642081202100A196F090E0906E1
S1130D500A0002431A675A6F120E120602435A67B8
S1130D609A6F120E120602439A67DA6F120E120677
S1130D701043D867024B9B681B03FBD47047C046E3
S1130D8000200042024A116802230B43136070479B
S1130D9000200042024B19680222914319607047F7
S1130DA00020004210B5154A116A80235B000B43F2
S1130DB01362134A134B5A80124B5B785BB2002BBD
S1130DC0FADB114B98471149CA6B07239A43063B38
S1130DD01343CB630D4B9B685B06FBD418200C4B71
S1130DE098470A4B19680B4A0A401A60196A80220C
S1130DF052040A431A62084B984710BD000400408D
S1130E001A400000000C0040950D00000020004234
S1130E10410D0000FFF8FFFF850D00009E2110B575
S1130E20C905041C00F01EFD002803D1201C00F09D
S1130E3083FC10BD9E21201CC90500F0E1FA00F0DE
S1130E407BFC80231B069C466044F2E7F0B5C64653
S1130E504E024702760A7B0A4400C50FF700480099
S1130E60984600B5240E2A00DB00000EC90FBC46CC
S1130E708D4267D0221A002A00DCA5E000283AD16E
S1130E80002F00D193E0511E002900D0BCE00124C2
S1130E90DB1B5A0146D59B019E09300000F0ECFC97
S1130EA005388640844200DD9DE0041B320020208A
S1130EB00134E240041BA64033005E1EB34100240B
S1130EC013435A0704D00F221A40042A00D00433D3
S1130ED05A0129D50134FF2C00D181E02A009B015D
S1130EE05B0AE4B25B02E405580AD20720431043CC
S1130EF004BC9046F0BDFF2CE3D080213800C90427
S1130F00084384461B2A00DD82E020206146D1404C
S1130F10821A604690400200501E82410A439B1A86
S1130F205A01B8D45A07CED1DE082A00FF2C3AD190
S1130F30002E00D1AEE08023DB0333435B025B0A67
S1130F40FF24CFE7211A002952DD002831D0FF2CDD
S1130F50B7D080203E00C0040643B4461B2900DD00
S1130F60AAE020266046C840711A66468E403100C9
S1130F704E1EB14101435B185901D3D50134FF2CF6
S1130F8000D187E0012278491A405B080B401343E3
S1130F9097E7002C00D0A7E0002B00D0B6E03B1E62
S1130FA062D10026002273025B0AE4B29AE71400BD
S1130FB087E7002F4DD0481E002857D163440124F1
S1130FC05A01AFD50224DDE7002A24D1621CD2B233
S1130FD0012ADEDDDE1B720135D5FE1A0D005CE749
S1130FE02A0000237EE73300604A241A134068E78E
S1130FF0002963D1611CC8B201284EDDFF2949D004
S113100063445B080C005CE7FF2A41D00A0079E7DF
S113101001229B1A84E7002C1DD0FF2822D08024B3
S1131020E404524223431B2A00DD8AE01C002025ED
S1131030D440AA1A93405A1E9341234362460400A3
S1131040D31A0D0025E7002E00D026E70022002445
S1131050A9E70C0035E7002B4DD0D243002AEDD090
S1131060FF28E0D16346FF240D002AE7FF290FD0B3
S1131070010073E7002B61D0FF24002F00D120E78B
S113108080224146D203114202D0164200D13B00D5
S1131090FF2416E7FF24002324E7002CEAD1002BC9
S11310A058D0002F00D10CE763445A0100D439E72B
S11310B02E4A0C00134004E701215CE7002C1ED1EA
S11310C0002B40D0C94300290BD0FF2836D01B2960
S11310D047DC1C002026CC40711A8B40591E8B41E2
S11310E023436344040047E7002B18D13B1E2DD053
S11310F00D00FF24E5E63B0004000D00E1E6FF28B7
S11311001CD08024E40449422343E0E7002F00D1AB
S1131110D7E6DE1B72011FD5FB1A0D00D1E6FF24B2
S1131120002F00D1CDE680224046D2031042AFD03A
S11311301642ADD13B000D00FF24C2E66346FF24F6
S1131140BFE601237AE73B000400BAE680260022CA
S1131150F603F0E63B00B4E6331E00D0E2E60022DC
S113116021E70123BDE7C046FFFFFF7DFFFFFFFB33
S1131170F0B557464E46DE464546E0B544024300C8
S1131180C60F83B00F1C640A1B0EB24653D0FF2B4C
S113119027D08022E400D20414437F225242904696
S11311A09844002399469B467D027800FB0F6D0A04
S11311B0000E009324D0FF2846D080230021ED00A8
S11311C0DB041D437F384746381A4F460F43BF00A0
S11311D0B9463300009A874F53404A46BA580193A0
S11311E09746002C4ED108239946F7339846FD3B89
S11311F09B467D027800FB0F6D0A000E0093DAD146
S1131200002D26D1002001213300009A7A4F53404B
S11312104246101A4A460A439200BA581D0097469D
S1131220009B2C009A468B465B46022B31D15346D9
S1131230FF21002438E0002C17D104239946002311
S1131240984601339B46AFE7FF20002D0BD10221C6
S1131250DAE7280000F010FB431F9D4076235B4231
S1131260181A0021AFE70321ADE7200000F004FBCA
S1131270431F9C4076235B421B1A984600239946E1
S11312809B4691E70C239946F3339846FC3B9B46D7
S11312908AE7032B00D1A5E05546012B00D081E05D
S11312A00123002100242B406402C905600ADB07E6
S11312B00843184303B03CBC90469946A246AB464B
S11312C0F0BD80240023E403FF21EDE7FF21002487
S11312D0EAE70123591A1B2966DD019A134000210C
S11312E00024E1E78023DB031C4238D01D4251D0A7
S11312F01C436402640A3300FF21D5E763016C01D7
S1131300A3423BD21B260021013801251F004900BE
S11313105B00002F01DB9C4201D81B1B2943013ECB
S1131320002EF3D11C00631E9C410C4301007F314D
S11313300029CEDD630704D00F232340042B00D003
S11313400434230103D501002C4B80311C40FE29B9
S11313500DDD0123019AFF2113400024A4E780231B
S1131360DB031C436402640A3300FF219CE701236E
S1131370019AA401640AC9B2134095E71B1B1A26FB
S11313800121C2E7009B8B469A4600244CE7630286
S1131390E5D500258024E4032C436402640A009B01
S11313A0FF2181E70195C1E723002020CB40411AAA
S11313B08C40611E8C411C43630704D00F232340DF
S11313C0042B00D00434630105D50123019A0121C3
S11313D01340002468E70123019AA401640A13401E
S11313E0002161E78023DB031C436402640A534643
S11313F0FF2159E7081C0000481C0000FFFFFFF70D
S1131400F0B54F46D64646464400C0B5C20F470223
S11314104802400A844666467B0A4800C90F9A4639
S1131420240E1500DB00000E8946F600FF2800D1CB
S11314308FE001214F464F403900914266D0221A75
S1131440002A00DC9DE000283DD1002E00D18BE075
S1131450511E002900D0B5E001249B1B5A0144D53C
S11314609B019F09380000F007FA05388740844241
S113147000DD96E0041B3A0020200134E240041B06
S1131480A7403B005F1EBB41002413435A0704D00E
S11314900F221A40042A00D004335A0127D50134FC
S11314A0FF2C00D179E001229B015B0AE4B22A40BF
S11314B05B02E405580AD207204310431CBC904643
S11314C09946A246F0BDFF2CE0D08021C9040E430A
S11314D01B2A7BDC31002020D140821A9640721EE8
S11314E096410E439B1B5A01BAD45A07D0D101220C
S11314F0DF082A40FF2C33D1002F00D1A8E080233D
S1131500DB033B435B025B0AFF24D1E7211A00297A
S11315104CDD00282AD0FF2CB8D08020C00406431C
S11315201B2900DDAFE030002027C840791A8E4027
S1131530711E8E4106439B195901D6D50134FF2CE7
S113154000D185E001227A491A405B080B4013431D
S11315509CE7002E00D070E76BE73B1EC5D100224C
S11315607B025B0AE4B2A3E714008FE7002E4DD0A0
S1131570481E002857D19B1901245A01B5D50224CD
S1131580E0E7002A25D1621CD2B2012A72DD9F1B3A
S11315907A0135D5F71A0D0064E7012200232A40A9
S11315A086E73B00634A241A13406FE700296CD195
S11315B0611CC8B201284EDDFF2949D09B195B0884
S11315C00C0063E7FF2A41D00A0081E701269B1B38
S11315D089E7002C1CD0FF2821D08024E404524247
S11315E023431B2A00DD96E01C002025D440AA1AC0
S11315F093405A1E93412343F31A04000D002DE730
S1131600002F00D02EE700220024A9E70C003DE7BC
S1131610002B58D0D243002AEED0FF28E1D133006A
S1131620FF240D0032E7FF2910D0010078E7002BDA
S11316306ED0FF24002E00D128E780225146D20329
S1131640114203D06146114200D13300FF241DE74B
S1131650FF2400232CE7002CE9D1002B63D0002EBB
S113166000D113E79B195A0100D43EE7314A0C001C
S113167013400BE7002C1ED1002B2FD1002E4FD08E
S113168033000D0002E7012655E7002C1FD1002B83
S113169043D0C94300290BD0FF2839D01B2944DC8F
S11316A01C002027CC40791A8B40591E8B412343C0
S11316B09B19040040E7002B1AD1002E24D1802767
S11316C00022FF031BE7330004000D00DEE6FF28C1
S11316D01ED08024E40449422343DFE7002E00D1D6
S11316E0D4E69F1B7A0100D437E7F31A0D00CDE648
S11316F0FF24002E00D1C9E680225046D2031042B6
S1131700A4D060461042A1D133000D00FF24BDE6F1
S11317103300FF24BAE601236EE733000400B5E684
S1131720002700221CE73300B0E60123C0E7C046CF
S1131730FFFFFF7DFFFFFFFB41024300C20F490A89
S11317401B0E00207E2B0DDD9D2B0CDC8020000465
S11317500143952B0ADC9620C31AD9404842002A3B
S113176000D108007047034BD018FBE7963B994023
S1131770F4E7C046FFFFFF7F10B5041E27D000F03A
S11317807BF89E231B1A962B0ADC9622D21A9440CD
S11317906402640ADBB26402DB05600A184310BD0C
S11317A0992B17DC9922D21A002A27DD94402200B3
S11317B0134C1440510704D00F210A40042A00D0CE
S11317C00434620112D4A401640ADBB2E3E7002307
S11317D00024E0E7B9222100D21A91400A00511EE8
S11317E08A410521091ACC401443DBE7044B1C4011
S11317F09F23A4011B1A640ADBB2CCE72200D7E7BB
S1131800FFFFFFFB8446081C6146FFE71FB500F09D
S1131810B7F8002801D40021C8421FBD10B500F05C
S113182049F84042013010BD10B500F0A9F8002875
S113183001DB002010BD012010BDC04610B500F032
S11318409FF8002801DD002010BD012010BDC04616
S113185010B500F055F8002801DC002010BD01206F
S113186010BDC04610B500F04BF8002801DA002086
S113187010BD012010BDC0461C2101231B04984249
S113188001D3000C10391B0A984201D3000A08390D
S11318901B09984201D30009043902A2105C4018C4
S11318A07047C04604030202010101010000000068
S11318B00000000070B5420045024E024C00C30F08
S11318C06D0A120E760A240EC90F0120FF2A06D0D3
S11318D0FF2C03D0A24201D1B54206D070BD002D29
S11318E0FCD1FF2CFAD1002EF8D18B4206D0012076
S11318F0002AF3D12800451EA841EFE70020EDE7B8
S1131900F0B5420045024C02C30F48006D0A120EA6
S1131910640A000EC90FFF2A1ED0FF2821D0002A16
S11319200AD16E426E41F6B200280FD1002C0DD1BF
S11319300020002D09D005E0002801D1002C01D0A1
S11319408B4211D0012158420843F0BD002EF7D03C
S1131950012001390843F8E7002DDED0022040427F
S1131960F3E7002CDBD0F9E78242EBDC04DBA54291
S1131970E8D80020A542E8D20121581E0843E4E734
S1131980F0B542004D024C004602760A120EC30F17
S11319906D0A240EC90FFF2A16D0FF2C18D0002A76
S11319A00AD170427041C0B2002C15D0002805D075
S11319B0012001390843F0BD002C13D0994214D002
S11319C001205B421843F6E70220002EF3D1E4E73E
S11319D00220002DEFD1E2E7002DE7D10020002EF8
S11319E0E9D0EDE7002DE9D1EAE7A24206DCDFDB2E
S11319F0AE4203D80020AE42DAD3DCE701204942EC
S1131A000843D8E770B50D4E0D4D0024AD1BAD1045
S1131A1005D0A300F35801349847A542F9D100F04A
S1131A2035F9084E084D0024AD1BAD1005D0A300B8
S1131A30F35801349847A542F9D170BD981C0000B1
S1131A40981C0000981C0000A01C0000034B10B55B
S1131A50002B02D0024800F005F810BD0000000081
S1131A60751A000010B5010000230022002000F0C8
S1131A701FF810BD70B5094B094CE41AA41009D025
S1131A80084AA518AD00ED182B68013C9847043DA1
S1131A90002CF9D100F004F970BDC046AC1C000064
S1131AA0B01C0000FFFFFF3F7047C0467047C046B0
S1131AB0F0B54E464546DE465746E0B5364D83B052
S1131AC00600286898460F009146FFF7EDFF334B58
S1131AD01C68A4235B00E058002852D043681F2BE5
S1131AE013DC5A1C0192002E28D1019A02339B0068
S1131AF042601F502868FFF7D9FF002003B03CBCA8
S1131B0090469946A246AB46F0BD254B002B3DD0EE
S1131B10C820400000E000BF002837D0A4220023E2
S1131B205200A15843600160A050403283500432F7
S1131B308350013301930023002ED6D09A0092469D
S1131B4082444A46882154466250C4225200914637
S1131B5081444A468739994012688B460A43944621
S1131B604A4661461160842241465200A150022E29
S1131B70BBD102005C468D32FF3211680C43146005
S1131B80B3E720004D30FF30E050A7E72868FFF7A7
S1131B908DFF01204042B1E730040020881C000082
S1131BA000000000620600005A06000070060000F3
S1131BB07A060000840600008E060000100700006C
S1131BC0400700006407000088070000B207000017
S1131BD0AE080000F4080000040900000C0900002D
S1131BE014090000780800008E0800009608000020
S1131BF09E080000A6080000E9A64F4327F177439A
S1131C0042909B430AA7CF43FC120000CC12000071
S1131C10DE12000020120000DE120000C2120000DA
S1131C20DE12000020120000CC120000CC120000D2
S1131C30C212000020120000281200002812000026
S1131C4028120000E4120000CC120000CC120000A4
S1131C50A012000084130000A0120000C2120000B1
S1131C60A012000084130000CC120000CC1200006B
S1131C70C212000084130000281200002812000081
S1131C80281200008E13000008000020F8B5C0469A
S1131C90F8BC08BC9E4670474D1A0000DD000000E9
S1131CA0F8B5C046F8BC08BC9E467047B5000000B5
S1131CB040420F000100000000000000F402002078
S1131CC05C030020C40300200000000000000000AA
S1131CD00000000000000000000000000000000000
S1131CE000000000000000000000000000000000F0
S1131CF000000000000000000000000000000000E0
S1131D0000000000000000000000000000000000CF
S1131D1000000000000000000000000000000000BF
S1131D2000000000000000000000000000000000AF
S1131D30000000000000000000000000000000009F
S1131D40000000000000000000000000000000008F
S1131D50000000000000000000000000000000007F
S1131D6001000000000000000E33CDAB34126DE61C
S1131D70ECDE05000B000000000000000000000085
S1131D80000000000000000000000000000000004F
S1131D90000000000000000000000000000000003F
S1131DA0000000000000000000000000000000002F
S1131DB0000000000000000000000000000000001F
S10720E0CC04002008
S9030000FC
